{
  "_format": "hh-sol-artifact-1",
  "contractName": "MyEpicNFT",
  "sourceName": "contracts/MyEpicNFT.sol",
  "abi": [
    {
      "inputs": [],
      "stateMutability": "nonpayable",
      "type": "constructor"
    },
    {
      "anonymous": false,
      "inputs": [
        {
          "indexed": true,
          "internalType": "address",
          "name": "owner",
          "type": "address"
        },
        {
          "indexed": true,
          "internalType": "address",
          "name": "approved",
          "type": "address"
        },
        {
          "indexed": true,
          "internalType": "uint256",
          "name": "tokenId",
          "type": "uint256"
        }
      ],
      "name": "Approval",
      "type": "event"
    },
    {
      "anonymous": false,
      "inputs": [
        {
          "indexed": true,
          "internalType": "address",
          "name": "owner",
          "type": "address"
        },
        {
          "indexed": true,
          "internalType": "address",
          "name": "operator",
          "type": "address"
        },
        {
          "indexed": false,
          "internalType": "bool",
          "name": "approved",
          "type": "bool"
        }
      ],
      "name": "ApprovalForAll",
      "type": "event"
    },
    {
      "anonymous": false,
      "inputs": [
        {
          "indexed": true,
          "internalType": "address",
          "name": "from",
          "type": "address"
        },
        {
          "indexed": true,
          "internalType": "address",
          "name": "to",
          "type": "address"
        },
        {
          "indexed": true,
          "internalType": "uint256",
          "name": "tokenId",
          "type": "uint256"
        }
      ],
      "name": "Transfer",
      "type": "event"
    },
    {
      "inputs": [
        {
          "internalType": "address",
          "name": "to",
          "type": "address"
        },
        {
          "internalType": "uint256",
          "name": "tokenId",
          "type": "uint256"
        }
      ],
      "name": "approve",
      "outputs": [],
      "stateMutability": "nonpayable",
      "type": "function"
    },
    {
      "inputs": [
        {
          "internalType": "address",
          "name": "owner",
          "type": "address"
        }
      ],
      "name": "balanceOf",
      "outputs": [
        {
          "internalType": "uint256",
          "name": "",
          "type": "uint256"
        }
      ],
      "stateMutability": "view",
      "type": "function"
    },
    {
      "inputs": [
        {
          "internalType": "uint256",
          "name": "tokenId",
          "type": "uint256"
        }
      ],
      "name": "getApproved",
      "outputs": [
        {
          "internalType": "address",
          "name": "",
          "type": "address"
        }
      ],
      "stateMutability": "view",
      "type": "function"
    },
    {
      "inputs": [
        {
          "internalType": "address",
          "name": "owner",
          "type": "address"
        },
        {
          "internalType": "address",
          "name": "operator",
          "type": "address"
        }
      ],
      "name": "isApprovedForAll",
      "outputs": [
        {
          "internalType": "bool",
          "name": "",
          "type": "bool"
        }
      ],
      "stateMutability": "view",
      "type": "function"
    },
    {
      "inputs": [],
      "name": "makeAnEpicNFT",
      "outputs": [],
      "stateMutability": "nonpayable",
      "type": "function"
    },
    {
      "inputs": [],
      "name": "name",
      "outputs": [
        {
          "internalType": "string",
          "name": "",
          "type": "string"
        }
      ],
      "stateMutability": "view",
      "type": "function"
    },
    {
      "inputs": [
        {
          "internalType": "uint256",
          "name": "tokenId",
          "type": "uint256"
        }
      ],
      "name": "ownerOf",
      "outputs": [
        {
          "internalType": "address",
          "name": "",
          "type": "address"
        }
      ],
      "stateMutability": "view",
      "type": "function"
    },
    {
      "inputs": [
        {
          "internalType": "address",
          "name": "from",
          "type": "address"
        },
        {
          "internalType": "address",
          "name": "to",
          "type": "address"
        },
        {
          "internalType": "uint256",
          "name": "tokenId",
          "type": "uint256"
        }
      ],
      "name": "safeTransferFrom",
      "outputs": [],
      "stateMutability": "nonpayable",
      "type": "function"
    },
    {
      "inputs": [
        {
          "internalType": "address",
          "name": "from",
          "type": "address"
        },
        {
          "internalType": "address",
          "name": "to",
          "type": "address"
        },
        {
          "internalType": "uint256",
          "name": "tokenId",
          "type": "uint256"
        },
        {
          "internalType": "bytes",
          "name": "_data",
          "type": "bytes"
        }
      ],
      "name": "safeTransferFrom",
      "outputs": [],
      "stateMutability": "nonpayable",
      "type": "function"
    },
    {
      "inputs": [
        {
          "internalType": "address",
          "name": "operator",
          "type": "address"
        },
        {
          "internalType": "bool",
          "name": "approved",
          "type": "bool"
        }
      ],
      "name": "setApprovalForAll",
      "outputs": [],
      "stateMutability": "nonpayable",
      "type": "function"
    },
    {
      "inputs": [
        {
          "internalType": "bytes4",
          "name": "interfaceId",
          "type": "bytes4"
        }
      ],
      "name": "supportsInterface",
      "outputs": [
        {
          "internalType": "bool",
          "name": "",
          "type": "bool"
        }
      ],
      "stateMutability": "view",
      "type": "function"
    },
    {
      "inputs": [],
      "name": "symbol",
      "outputs": [
        {
          "internalType": "string",
          "name": "",
          "type": "string"
        }
      ],
      "stateMutability": "view",
      "type": "function"
    },
    {
      "inputs": [
        {
          "internalType": "uint256",
          "name": "tokenId",
          "type": "uint256"
        }
      ],
      "name": "tokenURI",
      "outputs": [
        {
          "internalType": "string",
          "name": "",
          "type": "string"
        }
      ],
      "stateMutability": "view",
      "type": "function"
    },
    {
      "inputs": [
        {
          "internalType": "address",
          "name": "from",
          "type": "address"
        },
        {
          "internalType": "address",
          "name": "to",
          "type": "address"
        },
        {
          "internalType": "uint256",
          "name": "tokenId",
          "type": "uint256"
        }
      ],
      "name": "transferFrom",
      "outputs": [],
      "stateMutability": "nonpayable",
      "type": "function"
    }
  ],
  "bytecode": "0x60806040523480156200001157600080fd5b506040518060400160405280600981526020017f5371756172654e465400000000000000000000000000000000000000000000008152506040518060400160405280600681526020017f5351554152450000000000000000000000000000000000000000000000000000815250816000908051906020019062000096929190620001cf565b508060019080519060200190620000af929190620001cf565b505050620000fd6040518060400160405280601e81526020017f54686973206973206d79204e465420636f6e74726163742e20576f61682100008152506200010360201b62000b301760201c565b620003ac565b620001a3816040516024016200011a9190620002c0565b6040516020818303038152906040527f41304fac000000000000000000000000000000000000000000000000000000007bffffffffffffffffffffffffffffffffffffffffffffffffffffffff19166020820180517bffffffffffffffffffffffffffffffffffffffffffffffffffffffff8381831617835250505050620001a660201b60201c565b50565b60008151905060006a636f6e736f6c652e6c6f679050602083016000808483855afa5050505050565b828054620001dd9062000336565b90600052602060002090601f0160209004810192826200020157600085556200024d565b82601f106200021c57805160ff19168380011785556200024d565b828001600101855582156200024d579182015b828111156200024c5782518255916020019190600101906200022f565b5b5090506200025c919062000260565b5090565b5b808211156200027b57600081600090555060010162000261565b5090565b60006200028c82620002e4565b620002988185620002ef565b9350620002aa81856020860162000300565b620002b5816200039b565b840191505092915050565b60006020820190508181036000830152620002dc81846200027f565b905092915050565b600081519050919050565b600082825260208201905092915050565b60005b838110156200032057808201518184015260208101905062000303565b8381111562000330576000848401525b50505050565b600060028204905060018216806200034f57607f821691505b602082108114156200036657620003656200036c565b5b50919050565b7f4e487b7100000000000000000000000000000000000000000000000000000000600052602260045260246000fd5b6000601f19601f8301169050919050565b612bc280620003bc6000396000f3fe608060405234801561001057600080fd5b50600436106100ea5760003560e01c806370a082311161008c578063b88d4fde11610066578063b88d4fde1461025b578063c87b56dd14610277578063de9d132f146102a7578063e985e9c5146102b1576100ea565b806370a08231146101f157806395d89b4114610221578063a22cb4651461023f576100ea565b8063095ea7b3116100c8578063095ea7b31461016d57806323b872dd1461018957806342842e0e146101a55780636352211e146101c1576100ea565b806301ffc9a7146100ef57806306fdde031461011f578063081812fc1461013d575b600080fd5b61010960048036038101906101049190611ca0565b6102e1565b60405161011691906120a6565b60405180910390f35b6101276103c3565b60405161013491906120c1565b60405180910390f35b61015760048036038101906101529190611cf2565b610455565b604051610164919061203f565b60405180910390f35b61018760048036038101906101829190611c64565b6104da565b005b6101a3600480360381019061019e9190611b5e565b6105f2565b005b6101bf60048036038101906101ba9190611b5e565b610652565b005b6101db60048036038101906101d69190611cf2565b610672565b6040516101e8919061203f565b60405180910390f35b61020b60048036038101906102069190611af9565b610724565b60405161021891906122e3565b60405180910390f35b6102296107dc565b60405161023691906120c1565b60405180910390f35b61025960048036038101906102549190611c28565b61086e565b005b61027560048036038101906102709190611bad565b610884565b005b610291600480360381019061028c9190611cf2565b6108e6565b60405161029e91906120c1565b60405180910390f35b6102af610a38565b005b6102cb60048036038101906102c69190611b22565b610a9c565b6040516102d891906120a6565b60405180910390f35b60007f80ac58cd000000000000000000000000000000000000000000000000000000007bffffffffffffffffffffffffffffffffffffffffffffffffffffffff1916827bffffffffffffffffffffffffffffffffffffffffffffffffffffffff191614806103ac57507f5b5e139f000000000000000000000000000000000000000000000000000000007bffffffffffffffffffffffffffffffffffffffffffffffffffffffff1916827bffffffffffffffffffffffffffffffffffffffffffffffffffffffff1916145b806103bc57506103bb82610bc9565b5b9050919050565b6060600080546103d290612508565b80601f01602080910402602001604051908101604052809291908181526020018280546103fe90612508565b801561044b5780601f106104205761010080835404028352916020019161044b565b820191906000526020600020905b81548152906001019060200180831161042e57829003601f168201915b5050505050905090565b600061046082610c33565b61049f576040517f08c379a000000000000000000000000000000000000000000000000000000000815260040161049690612243565b60405180910390fd5b6004600083815260200190815260200160002060009054906101000a900473ffffffffffffffffffffffffffffffffffffffff169050919050565b60006104e582610672565b90508073ffffffffffffffffffffffffffffffffffffffff168373ffffffffffffffffffffffffffffffffffffffff161415610556576040517f08c379a000000000000000000000000000000000000000000000000000000000815260040161054d906122a3565b60405180910390fd5b8073ffffffffffffffffffffffffffffffffffffffff16610575610c9f565b73ffffffffffffffffffffffffffffffffffffffff1614806105a457506105a38161059e610c9f565b610a9c565b5b6105e3576040517f08c379a00000000000000000000000000000000000000000000000000000000081526004016105da90612183565b60405180910390fd5b6105ed8383610ca7565b505050565b6106036105fd610c9f565b82610d60565b610642576040517f08c379a0000000000000000000000000000000000000000000000000000000008152600401610639906122c3565b60405180910390fd5b61064d838383610e3e565b505050565b61066d83838360405180602001604052806000815250610884565b505050565b6000806002600084815260200190815260200160002060009054906101000a900473ffffffffffffffffffffffffffffffffffffffff169050600073ffffffffffffffffffffffffffffffffffffffff168173ffffffffffffffffffffffffffffffffffffffff16141561071b576040517f08c379a0000000000000000000000000000000000000000000000000000000008152600401610712906121c3565b60405180910390fd5b80915050919050565b60008073ffffffffffffffffffffffffffffffffffffffff168273ffffffffffffffffffffffffffffffffffffffff161415610795576040517f08c379a000000000000000000000000000000000000000000000000000000000815260040161078c906121a3565b60405180910390fd5b600360008373ffffffffffffffffffffffffffffffffffffffff1673ffffffffffffffffffffffffffffffffffffffff168152602001908152602001600020549050919050565b6060600180546107eb90612508565b80601f016020809104026020016040519081016040528092919081815260200182805461081790612508565b80156108645780601f1061083957610100808354040283529160200191610864565b820191906000526020600020905b81548152906001019060200180831161084757829003601f168201915b5050505050905090565b610880610879610c9f565b838361109a565b5050565b61089561088f610c9f565b83610d60565b6108d4576040517f08c379a00000000000000000000000000000000000000000000000000000000081526004016108cb906122c3565b60405180910390fd5b6108e084848484611207565b50505050565b60606108f182610c33565b610930576040517f08c379a000000000000000000000000000000000000000000000000000000000815260040161092790612223565b60405180910390fd5b600060066000848152602001908152602001600020805461095090612508565b80601f016020809104026020016040519081016040528092919081815260200182805461097c90612508565b80156109c95780601f1061099e576101008083540402835291602001916109c9565b820191906000526020600020905b8154815290600101906020018083116109ac57829003601f168201915b5050505050905060006109da611263565b90506000815114156109f0578192505050610a33565b600082511115610a25578082604051602001610a0d92919061201b565b60405160208183030381529060405292505050610a33565b610a2e8461127a565b925050505b919050565b6000610a446007611321565b9050610a50338261132f565b610a8f816040518060400160405280600481526020017f626c61680000000000000000000000000000000000000000000000000000000081525061134d565b610a9960076113c1565b50565b6000600560008473ffffffffffffffffffffffffffffffffffffffff1673ffffffffffffffffffffffffffffffffffffffff16815260200190815260200160002060008373ffffffffffffffffffffffffffffffffffffffff1673ffffffffffffffffffffffffffffffffffffffff16815260200190815260200160002060009054906101000a900460ff16905092915050565b610bc681604051602401610b4491906120c1565b6040516020818303038152906040527f41304fac000000000000000000000000000000000000000000000000000000007bffffffffffffffffffffffffffffffffffffffffffffffffffffffff19166020820180517bffffffffffffffffffffffffffffffffffffffffffffffffffffffff83818316178352505050506113d7565b50565b60007f01ffc9a7000000000000000000000000000000000000000000000000000000007bffffffffffffffffffffffffffffffffffffffffffffffffffffffff1916827bffffffffffffffffffffffffffffffffffffffffffffffffffffffff1916149050919050565b60008073ffffffffffffffffffffffffffffffffffffffff166002600084815260200190815260200160002060009054906101000a900473ffffffffffffffffffffffffffffffffffffffff1673ffffffffffffffffffffffffffffffffffffffff1614159050919050565b600033905090565b816004600083815260200190815260200160002060006101000a81548173ffffffffffffffffffffffffffffffffffffffff021916908373ffffffffffffffffffffffffffffffffffffffff160217905550808273ffffffffffffffffffffffffffffffffffffffff16610d1a83610672565b73ffffffffffffffffffffffffffffffffffffffff167f8c5be1e5ebec7d5bd14f71427d1e84f3dd0314c0f7b2291e5b200ac8c7c3b92560405160405180910390a45050565b6000610d6b82610c33565b610daa576040517f08c379a0000000000000000000000000000000000000000000000000000000008152600401610da190612163565b60405180910390fd5b6000610db583610672565b90508073ffffffffffffffffffffffffffffffffffffffff168473ffffffffffffffffffffffffffffffffffffffff161480610e2457508373ffffffffffffffffffffffffffffffffffffffff16610e0c84610455565b73ffffffffffffffffffffffffffffffffffffffff16145b80610e355750610e348185610a9c565b5b91505092915050565b8273ffffffffffffffffffffffffffffffffffffffff16610e5e82610672565b73ffffffffffffffffffffffffffffffffffffffff1614610eb4576040517f08c379a0000000000000000000000000000000000000000000000000000000008152600401610eab90612263565b60405180910390fd5b600073ffffffffffffffffffffffffffffffffffffffff168273ffffffffffffffffffffffffffffffffffffffff161415610f24576040517f08c379a0000000000000000000000000000000000000000000000000000000008152600401610f1b90612123565b60405180910390fd5b610f2f838383611400565b610f3a600082610ca7565b6001600360008573ffffffffffffffffffffffffffffffffffffffff1673ffffffffffffffffffffffffffffffffffffffff1681526020019081526020016000206000828254610f8a919061241e565b925050819055506001600360008473ffffffffffffffffffffffffffffffffffffffff1673ffffffffffffffffffffffffffffffffffffffff1681526020019081526020016000206000828254610fe19190612397565b92505081905550816002600083815260200190815260200160002060006101000a81548173ffffffffffffffffffffffffffffffffffffffff021916908373ffffffffffffffffffffffffffffffffffffffff160217905550808273ffffffffffffffffffffffffffffffffffffffff168473ffffffffffffffffffffffffffffffffffffffff167fddf252ad1be2c89b69c2b068fc378daa952ba7f163c4a11628f55a4df523b3ef60405160405180910390a4505050565b8173ffffffffffffffffffffffffffffffffffffffff168373ffffffffffffffffffffffffffffffffffffffff161415611109576040517f08c379a000000000000000000000000000000000000000000000000000000000815260040161110090612143565b60405180910390fd5b80600560008573ffffffffffffffffffffffffffffffffffffffff1673ffffffffffffffffffffffffffffffffffffffff16815260200190815260200160002060008473ffffffffffffffffffffffffffffffffffffffff1673ffffffffffffffffffffffffffffffffffffffff16815260200190815260200160002060006101000a81548160ff0219169083151502179055508173ffffffffffffffffffffffffffffffffffffffff168373ffffffffffffffffffffffffffffffffffffffff167f17307eab39ab6107e8899845ad3d59bd9653f200f220920489ca2b5937696c31836040516111fa91906120a6565b60405180910390a3505050565b611212848484610e3e565b61121e84848484611405565b61125d576040517f08c379a0000000000000000000000000000000000000000000000000000000008152600401611254906120e3565b60405180910390fd5b50505050565b606060405180602001604052806000815250905090565b606061128582610c33565b6112c4576040517f08c379a00000000000000000000000000000000000000000000000000000000081526004016112bb90612283565b60405180910390fd5b60006112ce611263565b905060008151116112ee5760405180602001604052806000815250611319565b806112f88461159c565b60405160200161130992919061201b565b6040516020818303038152906040525b915050919050565b600081600001549050919050565b611349828260405180602001604052806000815250611749565b5050565b61135682610c33565b611395576040517f08c379a000000000000000000000000000000000000000000000000000000000815260040161138c906121e3565b60405180910390fd5b806006600084815260200190815260200160002090805190602001906113bc929190611985565b505050565b6001816000016000828254019250508190555050565b60008151905060006a636f6e736f6c652e6c6f679050602083016000808483855afa5050505050565b505050565b60006114268473ffffffffffffffffffffffffffffffffffffffff166117a4565b1561158f578373ffffffffffffffffffffffffffffffffffffffff1663150b7a0261144f610c9f565b8786866040518563ffffffff1660e01b8152600401611471949392919061205a565b602060405180830381600087803b15801561148b57600080fd5b505af19250505080156114bc57506040513d601f19601f820116820180604052508101906114b99190611cc9565b60015b61153f573d80600081146114ec576040519150601f19603f3d011682016040523d82523d6000602084013e6114f1565b606091505b50600081511415611537576040517f08c379a000000000000000000000000000000000000000000000000000000000815260040161152e906120e3565b60405180910390fd5b805181602001fd5b63150b7a0260e01b7bffffffffffffffffffffffffffffffffffffffffffffffffffffffff1916817bffffffffffffffffffffffffffffffffffffffffffffffffffffffff191614915050611594565b600190505b949350505050565b606060008214156115e4576040518060400160405280600181526020017f30000000000000000000000000000000000000000000000000000000000000008152509050611744565b600082905060005b600082146116165780806115ff9061256b565b915050600a8261160f91906123ed565b91506115ec565b60008167ffffffffffffffff811115611658577f4e487b7100000000000000000000000000000000000000000000000000000000600052604160045260246000fd5b6040519080825280601f01601f19166020018201604052801561168a5781602001600182028036833780820191505090505b5090505b6000851461173d576001826116a3919061241e565b9150600a856116b291906125b4565b60306116be9190612397565b60f81b8183815181106116fa577f4e487b7100000000000000000000000000000000000000000000000000000000600052603260045260246000fd5b60200101907effffffffffffffffffffffffffffffffffffffffffffffffffffffffffffff1916908160001a905350600a8561173691906123ed565b945061168e565b8093505050505b919050565b61175383836117b7565b6117606000848484611405565b61179f576040517f08c379a0000000000000000000000000000000000000000000000000000000008152600401611796906120e3565b60405180910390fd5b505050565b600080823b905060008111915050919050565b600073ffffffffffffffffffffffffffffffffffffffff168273ffffffffffffffffffffffffffffffffffffffff161415611827576040517f08c379a000000000000000000000000000000000000000000000000000000000815260040161181e90612203565b60405180910390fd5b61183081610c33565b15611870576040517f08c379a000000000000000000000000000000000000000000000000000000000815260040161186790612103565b60405180910390fd5b61187c60008383611400565b6001600360008473ffffffffffffffffffffffffffffffffffffffff1673ffffffffffffffffffffffffffffffffffffffff16815260200190815260200160002060008282546118cc9190612397565b92505081905550816002600083815260200190815260200160002060006101000a81548173ffffffffffffffffffffffffffffffffffffffff021916908373ffffffffffffffffffffffffffffffffffffffff160217905550808273ffffffffffffffffffffffffffffffffffffffff16600073ffffffffffffffffffffffffffffffffffffffff167fddf252ad1be2c89b69c2b068fc378daa952ba7f163c4a11628f55a4df523b3ef60405160405180910390a45050565b82805461199190612508565b90600052602060002090601f0160209004810192826119b357600085556119fa565b82601f106119cc57805160ff19168380011785556119fa565b828001600101855582156119fa579182015b828111156119f95782518255916020019190600101906119de565b5b509050611a079190611a0b565b5090565b5b80821115611a24576000816000905550600101611a0c565b5090565b6000611a3b611a3684612323565b6122fe565b905082815260208101848484011115611a5357600080fd5b611a5e8482856124c6565b509392505050565b600081359050611a7581612b30565b92915050565b600081359050611a8a81612b47565b92915050565b600081359050611a9f81612b5e565b92915050565b600081519050611ab481612b5e565b92915050565b600082601f830112611acb57600080fd5b8135611adb848260208601611a28565b91505092915050565b600081359050611af381612b75565b92915050565b600060208284031215611b0b57600080fd5b6000611b1984828501611a66565b91505092915050565b60008060408385031215611b3557600080fd5b6000611b4385828601611a66565b9250506020611b5485828601611a66565b9150509250929050565b600080600060608486031215611b7357600080fd5b6000611b8186828701611a66565b9350506020611b9286828701611a66565b9250506040611ba386828701611ae4565b9150509250925092565b60008060008060808587031215611bc357600080fd5b6000611bd187828801611a66565b9450506020611be287828801611a66565b9350506040611bf387828801611ae4565b925050606085013567ffffffffffffffff811115611c1057600080fd5b611c1c87828801611aba565b91505092959194509250565b60008060408385031215611c3b57600080fd5b6000611c4985828601611a66565b9250506020611c5a85828601611a7b565b9150509250929050565b60008060408385031215611c7757600080fd5b6000611c8585828601611a66565b9250506020611c9685828601611ae4565b9150509250929050565b600060208284031215611cb257600080fd5b6000611cc084828501611a90565b91505092915050565b600060208284031215611cdb57600080fd5b6000611ce984828501611aa5565b91505092915050565b600060208284031215611d0457600080fd5b6000611d1284828501611ae4565b91505092915050565b611d2481612452565b82525050565b611d3381612464565b82525050565b6000611d4482612354565b611d4e818561236a565b9350611d5e8185602086016124d5565b611d67816126a1565b840191505092915050565b6000611d7d8261235f565b611d87818561237b565b9350611d978185602086016124d5565b611da0816126a1565b840191505092915050565b6000611db68261235f565b611dc0818561238c565b9350611dd08185602086016124d5565b80840191505092915050565b6000611de960328361237b565b9150611df4826126b2565b604082019050919050565b6000611e0c601c8361237b565b9150611e1782612701565b602082019050919050565b6000611e2f60248361237b565b9150611e3a8261272a565b604082019050919050565b6000611e5260198361237b565b9150611e5d82612779565b602082019050919050565b6000611e75602c8361237b565b9150611e80826127a2565b604082019050919050565b6000611e9860388361237b565b9150611ea3826127f1565b604082019050919050565b6000611ebb602a8361237b565b9150611ec682612840565b604082019050919050565b6000611ede60298361237b565b9150611ee98261288f565b604082019050919050565b6000611f01602e8361237b565b9150611f0c826128de565b604082019050919050565b6000611f2460208361237b565b9150611f2f8261292d565b602082019050919050565b6000611f4760318361237b565b9150611f5282612956565b604082019050919050565b6000611f6a602c8361237b565b9150611f75826129a5565b604082019050919050565b6000611f8d60298361237b565b9150611f98826129f4565b604082019050919050565b6000611fb0602f8361237b565b9150611fbb82612a43565b604082019050919050565b6000611fd360218361237b565b9150611fde82612a92565b604082019050919050565b6000611ff660318361237b565b915061200182612ae1565b604082019050919050565b612015816124bc565b82525050565b60006120278285611dab565b91506120338284611dab565b91508190509392505050565b60006020820190506120546000830184611d1b565b92915050565b600060808201905061206f6000830187611d1b565b61207c6020830186611d1b565b612089604083018561200c565b818103606083015261209b8184611d39565b905095945050505050565b60006020820190506120bb6000830184611d2a565b92915050565b600060208201905081810360008301526120db8184611d72565b905092915050565b600060208201905081810360008301526120fc81611ddc565b9050919050565b6000602082019050818103600083015261211c81611dff565b9050919050565b6000602082019050818103600083015261213c81611e22565b9050919050565b6000602082019050818103600083015261215c81611e45565b9050919050565b6000602082019050818103600083015261217c81611e68565b9050919050565b6000602082019050818103600083015261219c81611e8b565b9050919050565b600060208201905081810360008301526121bc81611eae565b9050919050565b600060208201905081810360008301526121dc81611ed1565b9050919050565b600060208201905081810360008301526121fc81611ef4565b9050919050565b6000602082019050818103600083015261221c81611f17565b9050919050565b6000602082019050818103600083015261223c81611f3a565b9050919050565b6000602082019050818103600083015261225c81611f5d565b9050919050565b6000602082019050818103600083015261227c81611f80565b9050919050565b6000602082019050818103600083015261229c81611fa3565b9050919050565b600060208201905081810360008301526122bc81611fc6565b9050919050565b600060208201905081810360008301526122dc81611fe9565b9050919050565b60006020820190506122f8600083018461200c565b92915050565b6000612308612319565b9050612314828261253a565b919050565b6000604051905090565b600067ffffffffffffffff82111561233e5761233d612672565b5b612347826126a1565b9050602081019050919050565b600081519050919050565b600081519050919050565b600082825260208201905092915050565b600082825260208201905092915050565b600081905092915050565b60006123a2826124bc565b91506123ad836124bc565b9250827fffffffffffffffffffffffffffffffffffffffffffffffffffffffffffffffff038211156123e2576123e16125e5565b5b828201905092915050565b60006123f8826124bc565b9150612403836124bc565b92508261241357612412612614565b5b828204905092915050565b6000612429826124bc565b9150612434836124bc565b925082821015612447576124466125e5565b5b828203905092915050565b600061245d8261249c565b9050919050565b60008115159050919050565b60007fffffffff0000000000000000000000000000000000000000000000000000000082169050919050565b600073ffffffffffffffffffffffffffffffffffffffff82169050919050565b6000819050919050565b82818337600083830152505050565b60005b838110156124f35780820151818401526020810190506124d8565b83811115612502576000848401525b50505050565b6000600282049050600182168061252057607f821691505b6020821081141561253457612533612643565b5b50919050565b612543826126a1565b810181811067ffffffffffffffff8211171561256257612561612672565b5b80604052505050565b6000612576826124bc565b91507fffffffffffffffffffffffffffffffffffffffffffffffffffffffffffffffff8214156125a9576125a86125e5565b5b600182019050919050565b60006125bf826124bc565b91506125ca836124bc565b9250826125da576125d9612614565b5b828206905092915050565b7f4e487b7100000000000000000000000000000000000000000000000000000000600052601160045260246000fd5b7f4e487b7100000000000000000000000000000000000000000000000000000000600052601260045260246000fd5b7f4e487b7100000000000000000000000000000000000000000000000000000000600052602260045260246000fd5b7f4e487b7100000000000000000000000000000000000000000000000000000000600052604160045260246000fd5b6000601f19601f8301169050919050565b7f4552433732313a207472616e7366657220746f206e6f6e20455243373231526560008201527f63656976657220696d706c656d656e7465720000000000000000000000000000602082015250565b7f4552433732313a20746f6b656e20616c7265616479206d696e74656400000000600082015250565b7f4552433732313a207472616e7366657220746f20746865207a65726f2061646460008201527f7265737300000000000000000000000000000000000000000000000000000000602082015250565b7f4552433732313a20617070726f766520746f2063616c6c657200000000000000600082015250565b7f4552433732313a206f70657261746f7220717565727920666f72206e6f6e657860008201527f697374656e7420746f6b656e0000000000000000000000000000000000000000602082015250565b7f4552433732313a20617070726f76652063616c6c6572206973206e6f74206f7760008201527f6e6572206e6f7220617070726f76656420666f7220616c6c0000000000000000602082015250565b7f4552433732313a2062616c616e636520717565727920666f7220746865207a6560008201527f726f206164647265737300000000000000000000000000000000000000000000602082015250565b7f4552433732313a206f776e657220717565727920666f72206e6f6e657869737460008201527f656e7420746f6b656e0000000000000000000000000000000000000000000000602082015250565b7f45524337323155524953746f726167653a2055524920736574206f66206e6f6e60008201527f6578697374656e7420746f6b656e000000000000000000000000000000000000602082015250565b7f4552433732313a206d696e7420746f20746865207a65726f2061646472657373600082015250565b7f45524337323155524953746f726167653a2055524920717565727920666f722060008201527f6e6f6e6578697374656e7420746f6b656e000000000000000000000000000000602082015250565b7f4552433732313a20617070726f76656420717565727920666f72206e6f6e657860008201527f697374656e7420746f6b656e0000000000000000000000000000000000000000602082015250565b7f4552433732313a207472616e73666572206f6620746f6b656e2074686174206960008201527f73206e6f74206f776e0000000000000000000000000000000000000000000000602082015250565b7f4552433732314d657461646174613a2055524920717565727920666f72206e6f60008201527f6e6578697374656e7420746f6b656e0000000000000000000000000000000000602082015250565b7f4552433732313a20617070726f76616c20746f2063757272656e74206f776e6560008201527f7200000000000000000000000000000000000000000000000000000000000000602082015250565b7f4552433732313a207472616e736665722063616c6c6572206973206e6f74206f60008201527f776e6572206e6f7220617070726f766564000000000000000000000000000000602082015250565b612b3981612452565b8114612b4457600080fd5b50565b612b5081612464565b8114612b5b57600080fd5b50565b612b6781612470565b8114612b7257600080fd5b50565b612b7e816124bc565b8114612b8957600080fd5b5056fea26469706673582212208edae323c6f1c986fbf4278678923ac41e79c6698eaf4f1f4119cfad5e30024664736f6c63430008040033",
  "linkReferences": {},
  "deployedLinkReferences": {}
}